{
  "_format": "hh-sol-artifact-1",
  "contractName": "OracleRandomNumber",
  "sourceName": "contracts/OracleRandomNumber.sol",
  "abi": [
    {
      "inputs": [
        {
          "internalType": "address",
          "name": "_oracle",
          "type": "address"
        }
      ],
      "stateMutability": "nonpayable",
      "type": "constructor"
    },
    {
      "anonymous": false,
      "inputs": [
        {
          "indexed": true,
          "internalType": "uint256",
          "name": "requestId",
          "type": "uint256"
        },
        {
          "indexed": false,
          "internalType": "uint256",
          "name": "randomNumber",
          "type": "uint256"
        },
        {
          "indexed": true,
          "internalType": "address",
          "name": "requester",
          "type": "address"
        }
      ],
      "name": "RandomNumberFulfilled",
      "type": "event"
    },
    {
      "anonymous": false,
      "inputs": [
        {
          "indexed": true,
          "internalType": "uint256",
          "name": "requestId",
          "type": "uint256"
        },
        {
          "indexed": true,
          "internalType": "address",
          "name": "requester",
          "type": "address"
        }
      ],
      "name": "RandomNumberRequested",
      "type": "event"
    },
    {
      "inputs": [
        {
          "internalType": "address",
          "name": "newOracle",
          "type": "address"
        }
      ],
      "name": "changeOracle",
      "outputs": [],
      "stateMutability": "nonpayable",
      "type": "function"
    },
    {
      "inputs": [
        {
          "internalType": "uint256",
          "name": "_requestId",
          "type": "uint256"
        },
        {
          "internalType": "uint256",
          "name": "_randomNumber",
          "type": "uint256"
        },
        {
          "internalType": "bytes",
          "name": "_signature",
          "type": "bytes"
        }
      ],
      "name": "fulfillRandomNumber",
      "outputs": [],
      "stateMutability": "nonpayable",
      "type": "function"
    },
    {
      "inputs": [
        {
          "internalType": "bytes32",
          "name": "_messageHash",
          "type": "bytes32"
        }
      ],
      "name": "getEthSignedMessageHash",
      "outputs": [
        {
          "internalType": "bytes32",
          "name": "",
          "type": "bytes32"
        }
      ],
      "stateMutability": "pure",
      "type": "function"
    },
    {
      "inputs": [
        {
          "internalType": "uint256",
          "name": "_requestId",
          "type": "uint256"
        }
      ],
      "name": "getRandomNumber",
      "outputs": [
        {
          "internalType": "uint256",
          "name": "",
          "type": "uint256"
        },
        {
          "internalType": "bool",
          "name": "",
          "type": "bool"
        }
      ],
      "stateMutability": "view",
      "type": "function"
    },
    {
      "inputs": [],
      "name": "nextRequestId",
      "outputs": [
        {
          "internalType": "uint256",
          "name": "",
          "type": "uint256"
        }
      ],
      "stateMutability": "view",
      "type": "function"
    },
    {
      "inputs": [],
      "name": "oracle",
      "outputs": [
        {
          "internalType": "address",
          "name": "",
          "type": "address"
        }
      ],
      "stateMutability": "view",
      "type": "function"
    },
    {
      "inputs": [
        {
          "internalType": "bytes32",
          "name": "_ethSignedMessageHash",
          "type": "bytes32"
        },
        {
          "internalType": "bytes",
          "name": "_signature",
          "type": "bytes"
        }
      ],
      "name": "recoverSigner",
      "outputs": [
        {
          "internalType": "address",
          "name": "",
          "type": "address"
        }
      ],
      "stateMutability": "pure",
      "type": "function"
    },
    {
      "inputs": [],
      "name": "requestRandomNumber",
      "outputs": [
        {
          "internalType": "uint256",
          "name": "",
          "type": "uint256"
        }
      ],
      "stateMutability": "nonpayable",
      "type": "function"
    },
    {
      "inputs": [
        {
          "internalType": "uint256",
          "name": "",
          "type": "uint256"
        }
      ],
      "name": "requests",
      "outputs": [
        {
          "internalType": "address",
          "name": "requester",
          "type": "address"
        },
        {
          "internalType": "bool",
          "name": "fulfilled",
          "type": "bool"
        },
        {
          "internalType": "uint256",
          "name": "randomNumber",
          "type": "uint256"
        }
      ],
      "stateMutability": "view",
      "type": "function"
    },
    {
      "inputs": [
        {
          "internalType": "bytes",
          "name": "_signature",
          "type": "bytes"
        }
      ],
      "name": "splitSignature",
      "outputs": [
        {
          "internalType": "bytes32",
          "name": "r",
          "type": "bytes32"
        },
        {
          "internalType": "bytes32",
          "name": "s",
          "type": "bytes32"
        },
        {
          "internalType": "uint8",
          "name": "v",
          "type": "uint8"
        }
      ],
      "stateMutability": "pure",
      "type": "function"
    }
  ],
  "bytecode": "0x608060405234801561001057600080fd5b506040516115f93803806115f983398181016040528101906100329190610124565b806000806101000a81548173ffffffffffffffffffffffffffffffffffffffff021916908373ffffffffffffffffffffffffffffffffffffffff160217905550600160028190555033600160006101000a81548173ffffffffffffffffffffffffffffffffffffffff021916908373ffffffffffffffffffffffffffffffffffffffff16021790555050610151565b600080fd5b600073ffffffffffffffffffffffffffffffffffffffff82169050919050565b60006100f1826100c6565b9050919050565b610101816100e6565b811461010c57600080fd5b50565b60008151905061011e816100f8565b92915050565b60006020828403121561013a576101396100c1565b5b60006101488482850161010f565b91505092915050565b611499806101606000396000f3fe608060405234801561001057600080fd5b506004361061009e5760003560e01c80638678a7b2116100665780638678a7b21461014957806397aba7f914610167578063a7bb580314610197578063b37217a4146101c9578063fa540801146101fa5761009e565b80631c4497f4146100a357806347c421b5146100bf5780636a84a985146100db5780637dc0d1d0146100f957806381d12c5814610117575b600080fd5b6100bd60048036038101906100b89190610bae565b61022a565b005b6100d960048036038101906100d49190610c7b565b6105ae565b005b6100e3610681565b6040516100f09190610cb7565b60405180910390f35b610101610687565b60405161010e9190610ce1565b60405180910390f35b610131600480360381019061012c9190610cfc565b6106ab565b60405161014093929190610d44565b60405180910390f35b610151610702565b60405161015e9190610cb7565b60405180910390f35b610181600480360381019061017c9190610db1565b610825565b60405161018e9190610ce1565b60405180910390f35b6101b160048036038101906101ac9190610e0d565b610894565b6040516101c093929190610e81565b60405180910390f35b6101e360048036038101906101de9190610cfc565b6108fc565b6040516101f1929190610eb8565b60405180910390f35b610214600480360381019061020f9190610ee1565b610937565b6040516102219190610f0e565b60405180910390f35b60008054906101000a900473ffffffffffffffffffffffffffffffffffffffff1673ffffffffffffffffffffffffffffffffffffffff163373ffffffffffffffffffffffffffffffffffffffff16146102b8576040517f08c379a00000000000000000000000000000000000000000000000000000000081526004016102af90610fac565b60405180910390fd5b6003600084815260200190815260200160002060000160149054906101000a900460ff161561031c576040517f08c379a000000000000000000000000000000000000000000000000000000000815260040161031390611018565b60405180910390fd5b610327838383610967565b610366576040517f08c379a000000000000000000000000000000000000000000000000000000000815260040161035d90611084565b60405180910390fd5b600060036000858152602001908152602001600020905060018160000160146101000a81548160ff0219169083151502179055508281600101819055506103d08160000160009054906101000a900473ffffffffffffffffffffffffffffffffffffffff16610a05565b156105355760008160000160009054906101000a900473ffffffffffffffffffffffffffffffffffffffff1673ffffffffffffffffffffffffffffffffffffffff16846040516024016104239190610cb7565b6040516020818303038152906040527ff78da08a000000000000000000000000000000000000000000000000000000007bffffffffffffffffffffffffffffffffffffffffffffffffffffffff19166020820180517bffffffffffffffffffffffffffffffffffffffffffffffffffffffff83818316178352505050506040516104ad9190611115565b6000604051808303816000865af19150503d80600081146104ea576040519150601f19603f3d011682016040523d82523d6000602084013e6104ef565b606091505b5050905080610533576040517f08c379a000000000000000000000000000000000000000000000000000000000815260040161052a9061119e565b60405180910390fd5b505b8060000160009054906101000a900473ffffffffffffffffffffffffffffffffffffffff1673ffffffffffffffffffffffffffffffffffffffff16847fc8157836e6c4d361c58ca27a5f65b1490af67b81e3ec69dc50ee21943f1a3bc2856040516105a09190610cb7565b60405180910390a350505050565b600160009054906101000a900473ffffffffffffffffffffffffffffffffffffffff1673ffffffffffffffffffffffffffffffffffffffff163373ffffffffffffffffffffffffffffffffffffffff161461063e576040517f08c379a000000000000000000000000000000000000000000000000000000000815260040161063590611230565b60405180910390fd5b806000806101000a81548173ffffffffffffffffffffffffffffffffffffffff021916908373ffffffffffffffffffffffffffffffffffffffff16021790555050565b60025481565b60008054906101000a900473ffffffffffffffffffffffffffffffffffffffff1681565b60036020528060005260406000206000915090508060000160009054906101000a900473ffffffffffffffffffffffffffffffffffffffff16908060000160149054906101000a900460ff16908060010154905083565b600080600260008154809291906107189061127f565b91905055905060405180606001604052803373ffffffffffffffffffffffffffffffffffffffff16815260200160001515815260200160008152506003600083815260200190815260200160002060008201518160000160006101000a81548173ffffffffffffffffffffffffffffffffffffffff021916908373ffffffffffffffffffffffffffffffffffffffff16021790555060208201518160000160146101000a81548160ff021916908315150217905550604082015181600101559050503373ffffffffffffffffffffffffffffffffffffffff16817f5c26be7c63c538733cb4a2ce864c2fee740dfcfefd2c08da9cdfb17ce0f65e1960405160405180910390a38091505090565b60008060008061083485610894565b9250925092506001868285856040516000815260200160405260405161085d94939291906112c7565b6020604051602081039080840390855afa15801561087f573d6000803e3d6000fd5b50505060206040510351935050505092915050565b600080600060418451146108dd576040517f08c379a00000000000000000000000000000000000000000000000000000000081526004016108d490611358565b60405180910390fd5b6020840151925060408401519150606084015160001a90509193909250565b600080600060036000858152602001908152602001600020905080600101548160000160149054906101000a900460ff169250925050915091565b60008160405160200161094a91906113f0565b604051602081830303815290604052805190602001209050919050565b600080848460405160200161097d929190611437565b60405160208183030381529060405280519060200120905060006109a082610937565b905060008054906101000a900473ffffffffffffffffffffffffffffffffffffffff1673ffffffffffffffffffffffffffffffffffffffff166109e38286610825565b73ffffffffffffffffffffffffffffffffffffffff1614925050509392505050565b600080823b905060008163ffffffff1611915050919050565b6000604051905090565b600080fd5b600080fd5b6000819050919050565b610a4581610a32565b8114610a5057600080fd5b50565b600081359050610a6281610a3c565b92915050565b600080fd5b600080fd5b6000601f19601f8301169050919050565b7f4e487b7100000000000000000000000000000000000000000000000000000000600052604160045260246000fd5b610abb82610a72565b810181811067ffffffffffffffff82111715610ada57610ad9610a83565b5b80604052505050565b6000610aed610a1e565b9050610af98282610ab2565b919050565b600067ffffffffffffffff821115610b1957610b18610a83565b5b610b2282610a72565b9050602081019050919050565b82818337600083830152505050565b6000610b51610b4c84610afe565b610ae3565b905082815260208101848484011115610b6d57610b6c610a6d565b5b610b78848285610b2f565b509392505050565b600082601f830112610b9557610b94610a68565b5b8135610ba5848260208601610b3e565b91505092915050565b600080600060608486031215610bc757610bc6610a28565b5b6000610bd586828701610a53565b9350506020610be686828701610a53565b925050604084013567ffffffffffffffff811115610c0757610c06610a2d565b5b610c1386828701610b80565b9150509250925092565b600073ffffffffffffffffffffffffffffffffffffffff82169050919050565b6000610c4882610c1d565b9050919050565b610c5881610c3d565b8114610c6357600080fd5b50565b600081359050610c7581610c4f565b92915050565b600060208284031215610c9157610c90610a28565b5b6000610c9f84828501610c66565b91505092915050565b610cb181610a32565b82525050565b6000602082019050610ccc6000830184610ca8565b92915050565b610cdb81610c3d565b82525050565b6000602082019050610cf66000830184610cd2565b92915050565b600060208284031215610d1257610d11610a28565b5b6000610d2084828501610a53565b91505092915050565b60008115159050919050565b610d3e81610d29565b82525050565b6000606082019050610d596000830186610cd2565b610d666020830185610d35565b610d736040830184610ca8565b949350505050565b6000819050919050565b610d8e81610d7b565b8114610d9957600080fd5b50565b600081359050610dab81610d85565b92915050565b60008060408385031215610dc857610dc7610a28565b5b6000610dd685828601610d9c565b925050602083013567ffffffffffffffff811115610df757610df6610a2d565b5b610e0385828601610b80565b9150509250929050565b600060208284031215610e2357610e22610a28565b5b600082013567ffffffffffffffff811115610e4157610e40610a2d565b5b610e4d84828501610b80565b91505092915050565b610e5f81610d7b565b82525050565b600060ff82169050919050565b610e7b81610e65565b82525050565b6000606082019050610e966000830186610e56565b610ea36020830185610e56565b610eb06040830184610e72565b949350505050565b6000604082019050610ecd6000830185610ca8565b610eda6020830184610d35565b9392505050565b600060208284031215610ef757610ef6610a28565b5b6000610f0584828501610d9c565b91505092915050565b6000602082019050610f236000830184610e56565b92915050565b600082825260208201905092915050565b7f4f6e6c7920746865206f7261636c652063616e2066756c66696c6c207468652060008201527f7265717565737400000000000000000000000000000000000000000000000000602082015250565b6000610f96602783610f29565b9150610fa182610f3a565b604082019050919050565b60006020820190508181036000830152610fc581610f89565b9050919050565b7f5265717565737420616c72656164792066756c66696c6c656400000000000000600082015250565b6000611002601983610f29565b915061100d82610fcc565b602082019050919050565b6000602082019050818103600083015261103181610ff5565b9050919050565b7f496e76616c6964207369676e6174757265000000000000000000000000000000600082015250565b600061106e601183610f29565b915061107982611038565b602082019050919050565b6000602082019050818103600083015261109d81611061565b9050919050565b600081519050919050565b600081905092915050565b60005b838110156110d85780820151818401526020810190506110bd565b60008484015250505050565b60006110ef826110a4565b6110f981856110af565b93506111098185602086016110ba565b80840191505092915050565b600061112182846110e4565b915081905092915050565b7f43616c6c6261636b20746f207468652072657175657374657220636f6e74726160008201527f6374206661696c65640000000000000000000000000000000000000000000000602082015250565b6000611188602983610f29565b91506111938261112c565b604082019050919050565b600060208201905081810360008301526111b78161117b565b9050919050565b7f4f6e6c7920746865206f776e65722063616e20706572666f726d20746869732060008201527f616374696f6e0000000000000000000000000000000000000000000000000000602082015250565b600061121a602683610f29565b9150611225826111be565b604082019050919050565b600060208201905081810360008301526112498161120d565b9050919050565b7f4e487b7100000000000000000000000000000000000000000000000000000000600052601160045260246000fd5b600061128a82610a32565b91507fffffffffffffffffffffffffffffffffffffffffffffffffffffffffffffffff82036112bc576112bb611250565b5b600182019050919050565b60006080820190506112dc6000830187610e56565b6112e96020830186610e72565b6112f66040830185610e56565b6113036060830184610e56565b95945050505050565b7f496e76616c6964207369676e6174757265206c656e6774680000000000000000600082015250565b6000611342601883610f29565b915061134d8261130c565b602082019050919050565b6000602082019050818103600083015261137181611335565b9050919050565b600081905092915050565b7f19457468657265756d205369676e6564204d6573736167653a0a333200000000600082015250565b60006113b9601c83611378565b91506113c482611383565b601c82019050919050565b6000819050919050565b6113ea6113e582610d7b565b6113cf565b82525050565b60006113fb826113ac565b915061140782846113d9565b60208201915081905092915050565b6000819050919050565b61143161142c82610a32565b611416565b82525050565b60006114438285611420565b6020820191506114538284611420565b602082019150819050939250505056fea26469706673582212206aacdc57161bcbff6c18963b8c6acad1b3c7bee0151eb46ed63691bd9114268b64736f6c634300081b0033",
  "linkReferences": {},
  "deployedLinkReferences": {}
}