{
  "_format": "hh-sol-artifact-1",
  "contractName": "TestOracleRandomNumber",
  "sourceName": "contracts/TestOracleRandomNumber.sol",
  "abi": [
    {
      "inputs": [
        {
          "internalType": "address",
          "name": "_oracleContractAddress",
          "type": "address"
        }
      ],
      "stateMutability": "nonpayable",
      "type": "constructor"
    },
    {
      "anonymous": false,
      "inputs": [
        {
          "indexed": false,
          "internalType": "uint256",
          "name": "randomNumber",
          "type": "uint256"
        }
      ],
      "name": "RandomNumberLogged",
      "type": "event"
    },
    {
      "inputs": [
        {
          "internalType": "uint256",
          "name": "_randomNumber",
          "type": "uint256"
        }
      ],
      "name": "fulfillRandomNumber",
      "outputs": [],
      "stateMutability": "nonpayable",
      "type": "function"
    },
    {
      "inputs": [],
      "name": "getRandomNumber",
      "outputs": [
        {
          "internalType": "uint256",
          "name": "",
          "type": "uint256"
        }
      ],
      "stateMutability": "view",
      "type": "function"
    },
    {
      "inputs": [],
      "name": "isRandomNumberFulfilled",
      "outputs": [
        {
          "internalType": "bool",
          "name": "",
          "type": "bool"
        }
      ],
      "stateMutability": "view",
      "type": "function"
    },
    {
      "inputs": [],
      "name": "oracleContract",
      "outputs": [
        {
          "internalType": "contract OracleRandomNumber",
          "name": "",
          "type": "address"
        }
      ],
      "stateMutability": "view",
      "type": "function"
    },
    {
      "inputs": [],
      "name": "randomNumberReceived",
      "outputs": [
        {
          "internalType": "bool",
          "name": "",
          "type": "bool"
        }
      ],
      "stateMutability": "view",
      "type": "function"
    },
    {
      "inputs": [],
      "name": "receivedRandomNumber",
      "outputs": [
        {
          "internalType": "uint256",
          "name": "",
          "type": "uint256"
        }
      ],
      "stateMutability": "view",
      "type": "function"
    },
    {
      "inputs": [],
      "name": "requestRandomNumber",
      "outputs": [],
      "stateMutability": "nonpayable",
      "type": "function"
    }
  ],
  "bytecode": "0x608060405234801561001057600080fd5b50604051610767380380610767833981810160405281019061003291906100db565b806000806101000a81548173ffffffffffffffffffffffffffffffffffffffff021916908373ffffffffffffffffffffffffffffffffffffffff16021790555050610108565b600080fd5b600073ffffffffffffffffffffffffffffffffffffffff82169050919050565b60006100a88261007d565b9050919050565b6100b88161009d565b81146100c357600080fd5b50565b6000815190506100d5816100af565b92915050565b6000602082840312156100f1576100f0610078565b5b60006100ff848285016100c6565b91505092915050565b610650806101176000396000f3fe608060405234801561001057600080fd5b506004361061007d5760003560e01c80638678a7b21161005b5780638678a7b2146100dc578063bece7532146100e6578063dbdff2c114610104578063f78da08a146101225761007d565b806339864fa6146100825780635af8b192146100a05780636e47c99f146100be575b600080fd5b61008a61013e565b6040516100979190610382565b60405180910390f35b6100a8610154565b6040516100b591906103b6565b60405180910390f35b6100c661015a565b6040516100d39190610382565b60405180910390f35b6100e461016d565b005b6100ee610201565b6040516100fb9190610450565b60405180910390f35b61010c610225565b60405161011991906103b6565b60405180910390f35b61013c6004803603810190610137919061049c565b61027d565b005b60008060149054906101000a900460ff16905090565b60015481565b600060149054906101000a900460ff1681565b60008054906101000a900473ffffffffffffffffffffffffffffffffffffffff1673ffffffffffffffffffffffffffffffffffffffff16638678a7b26040518163ffffffff1660e01b81526004016020604051808303816000875af11580156101da573d6000803e3d6000fd5b505050506040513d601f19601f820116820180604052508101906101fe91906104de565b50565b60008054906101000a900473ffffffffffffffffffffffffffffffffffffffff1681565b60008060149054906101000a900460ff16610275576040517f08c379a000000000000000000000000000000000000000000000000000000000815260040161026c90610568565b60405180910390fd5b600154905090565b60008054906101000a900473ffffffffffffffffffffffffffffffffffffffff1673ffffffffffffffffffffffffffffffffffffffff163373ffffffffffffffffffffffffffffffffffffffff161461030b576040517f08c379a0000000000000000000000000000000000000000000000000000000008152600401610302906105fa565b60405180910390fd5b806001819055506001600060146101000a81548160ff0219169083151502179055507f340983cb29b7cf0c72f9c092040f01f742cb5f69eceecd26fa86661ce015d24f8160405161035c91906103b6565b60405180910390a150565b60008115159050919050565b61037c81610367565b82525050565b60006020820190506103976000830184610373565b92915050565b6000819050919050565b6103b08161039d565b82525050565b60006020820190506103cb60008301846103a7565b92915050565b600073ffffffffffffffffffffffffffffffffffffffff82169050919050565b6000819050919050565b600061041661041161040c846103d1565b6103f1565b6103d1565b9050919050565b6000610428826103fb565b9050919050565b600061043a8261041d565b9050919050565b61044a8161042f565b82525050565b60006020820190506104656000830184610441565b92915050565b600080fd5b6104798161039d565b811461048457600080fd5b50565b60008135905061049681610470565b92915050565b6000602082840312156104b2576104b161046b565b5b60006104c084828501610487565b91505092915050565b6000815190506104d881610470565b92915050565b6000602082840312156104f4576104f361046b565b5b6000610502848285016104c9565b91505092915050565b600082825260208201905092915050565b7f52616e646f6d206e756d626572206e6f74207965742066756c66696c6c656400600082015250565b6000610552601f8361050b565b915061055d8261051c565b602082019050919050565b6000602082019050818103600083015261058181610545565b9050919050565b7f4f6e6c79206f7261636c6520636f6e74726163742063616e2066756c66696c6c60008201527f2074686973000000000000000000000000000000000000000000000000000000602082015250565b60006105e460258361050b565b91506105ef82610588565b604082019050919050565b60006020820190508181036000830152610613816105d7565b905091905056fea2646970667358221220b29404d938782c885f16144a8627ccac76d2ffead0a077bbe76e0b41ac1afad464736f6c634300081b0033",
  "linkReferences": {},
  "deployedLinkReferences": {}
}